:020000040000fa
:10000000f07f0020c5030000850600008706000081
:1000100000000000000000000000000000000000e0
:100020000000000000000000000000008306000047
:1000300000000000000000008306000083060000ae
:10004000830600008306000083060000050600000a
:10005000830600008306000083060000830600007c
:1000600083060000d1000000830600008306000024
:10007000830600008306000083060000830600005c
:10008000830600008306000083060000830600004c
:10009000830600000000000000000000830600004e
:1000a000830600008306000083060000830600002c
:020000040000fa
:1000b000f8b5c046f8bc08bc9e4670474504000031
:1000c000f8b5c046f8bc08bc9e4670471d04000049
:020000040000fa
:1000d00010b5334b187ec0b21b7e1b0709d5304bc1
:1000e00008221a76063a9a752e4b00229a6101323e
:1000f0001a702b4b5b8b5b0710d50422294b1a73ac
:10010000274b5a831b7e5b0705d5254b04219a6a32
:100110001a7e0a42fbd1224b80221a76204b1b7e8c
:100120005b0712d51e4b9b6a1e4a9269002a0cd1ae
:10013000dbb21c498a69541c8c611b498b541b49d6
:100140000a88541c0c801a498b54154b1b7edb0704
:1001500011d5144b5a691b699a421dd2114a536931
:10016000591c5161134ad25c0d4b1b7e9b0700d575
:1001700002200b4b9a6283070dd5094b02221a7697
:10018000084b00221a705a611a615b68002b02d07a
:10019000044a9068984710bd014b01221a75eae79e
:1001a00000080042340400205c04002054040020b5
:0801b0000c000020580400209f
:020000040000fa
:1001b8001f4b00229a619a8c80218a439a841a00e4
:1001c8001023d1680b42fcd01a4b1a68920e3f2ab2
:1001d8002bd0194b1b689b059b0d92021343144aa5
:1001e8009362022393840e33d1680b42fcd0134be5
:1001f800134a5a601a0053785bb2002bfbdb0f4b93
:10020800104a5a601a0053785bb2002bfbdb0b4b89
:100218000d4a5a800d4a5a800d4b3f229a610d4a69
:100228001a62034b00221a627047203ad1e7c0468f
:10023800000800402460800028608000000c004016
:100248000103010000070100044100001440000000
:08025800000400400400010055
:020000040000fa
:10026000f0b5c6461f4a204b00b50021934203d289
:10027000197001339342fbd10b231c4a9c46083b67
:1002800098461368546819000026214311d01700be
:1002900091680c3700290fd11a19002c03d01e7059
:1002a00001339342fbd13a0013685468190021438b
:1002b000edd104bc9046f0bd6146c91a1d19511814
:1002c000002c05d05a1c505c187013009542f9d1cf
:1002d000434623405a1e9341a4081c19a4003f1909
:1002e0003a00e1e71804002000000020f0020000be
:020000040000fa
:1002f000180400201c000000000000000000002086
:100300000c000000000000005c0400200100000060
:100310000000000058040020010000000000000060
:10032000340400201c0000000000000054040020e1
:1003300002000000000000000c0000200c0400007f
:100340000000000050040020040000000000000035
:10035000000000000000000022222222222222228d
:020000040000fa
:1003600010b5144b1a78202311009943542900d05a
:1003700010bd114b1988042913d0104b5b8804332e
:100380009942f5d10d490a700a4b5a784a700433e4
:100390004b60094b00221a80094b80229204da61db
:1003a000e6e7044ca0780002e3781b18034843807a
:1003b000e3e7c0460c000020540400201004002095
:0403c00000440041b4
:020000040000fa
:1003c40010b50e4b002b00d098470d4b002b00d0de
:1003d4009847fff743ff0b4bff2293430a4a93606e
:1003e4000a4b98470a4b002b00d09847094b002b27
:1003f40000d0984700f0baf8fee7c04600000000bd
:10040400000000000000000000ed00e065040000b2
:080414000000000000000000e0
:020000040000fa
:10041c0010b5064c2378002b07d1054b002b02d0ce
:10042c00044800e000bf0123237010bd1804002015
:10043c000000000000000000044b10b5002b03d09e
:10044c000349044800e000bf10bdc0460000000096
:08045c001c0400200000000058
:020000040000fa
:1004640070b500260c4d0d4c641ba410a64209d196
:100474000026fff71bfe0a4d0a4c641ba410a6427b
:1004840005d170bdb300eb5898470136eee7b300d1
:10049400eb5898470136f2e7bc000000bc000000ae
:0804a400bc000000c0000000d4
:020000040000fa
:1004ac000c4b0d4a5a601a00d369002bfcd1094b36
:1004bc000a4a1a601a00d369002bfcd1084b00229f
:1004cc009a615a611a611a735a601a70014b0c3294
:1004dc009a75704700080042400202000a0102109f
:0404ec0034040020b4
:020000040000fa
:1004f000bff35f8f62b60c4bc02080001a58120207
:10050000120ac02109060a431a5008221a6008304c
:100510001a5806491140c02212020a431a5080227a
:1005200092001a607047c04600e100e0ff00ffff44
:020000040000fa
:100530000e4b01221a801a00937a5bb2002bfbdb70
:100540000a4b80221a801a00937a5bb2002bfbdbe5
:10055000064b8022d2019a611a00937a5bb2002b7b
:10056000fbdb024b0122da717047c04600140040e9
:020000040000fa
:1005700010b5002000f030f8094b802292035a6138
:1005800052085a61520a9a610021064800f06cf83c
:100590000021054800f06ef800f048f8fee7c0467c
:0c05a0000044004145060000610300001b
:020000040000fa
:1005ac00084b094a1a601a61012244215a5401313c
:1005bc005a5401315a5401315a54323215395a5461
:0c05cc009a5470470044004100083002bf
:020000040000fa
:1005d80010b5094b06225a60fff7e4fffff7e8fd64
:1005e80000f038f800f048f8fff75cfffff79cffd1
:0c05f800fff77aff10bdc0460040004134
:020000040000fa
:1006040010b5074a107ac0b2064b1871c121117295
:100614001b68002b02d0034a9168984710bdc0465e
:0806240000140040000000205a
:020000040000fa
:10062c00044a138802210b431380937a5bb2002b8c
:08063c00fbdb704700140040d5
:020000040000fa
:10064400c30705d5034b80225203da61520ada61eb
:080654007047c046004400415c
:020000040000fa
:0c065c00014b82225a60704700400041b0
:020000040000fa
:0c066800014b18609960704700000020f2
:020000040000fa
:0c067400014b586099607047340400206e
:020000040000fa
:020680007047c1
:020000040000fa
:02068200fee791
:020000040000fa
:02068400fee78f
:020000040000fa
:02068600fee78d
:020000040000fa
:0200000400807a
:0440000077c700d8a6
:020000040000fa
:0200000400807a
:044004005c00ffff5e
:00000001FF
