:020000040000fa
:080000000001040000000000f3
:020000040000fa
:040008000c020000e6
:020000040000fa
:04000c004e020000a0
:020000040000fa
:040010008e0200005c
:020000040000fa
:040014002c020000ba
:020000040000fa
:040018006e02000074
:020000040000fa
:04001c00e4020000fa
:020000040000fa
:04002000e4020000f6
:020000040000fa
:04002400e4020000f2
:020000040000fa
:04002800e4020000ee
:020000040000fa
:04002c00e4020000ea
:020000040000fa
:04003000e4020000e6
:020000040000fa
:04003400ae02000018
:020000040000fa
:04003800e4020000de
:020000040000fa
:04003c00e4020000da
:020000040000fa
:04004000e4020000d6
:020000040000fa
:04004400e4020000d2
:020000040000fa
:04004800e4020000ce
:020000040000fa
:04004c00e4020000ca
:020000040000fa
:04005000e4020000c6
:020000040000fa
:04005400e4020000c2
:020000040000fa
:04005800e4020000be
:020000040000fa
:04005c00e4020000ba
:020000040000fa
:04006000e4020000b6
:020000040000fa
:04006400e4020000b2
:020000040000fa
:04006800e4020000ae
:020000040000fa
:04006c00e4020000aa
:020000040000fa
:04007000e4020000a6
:020000040000fa
:04007400e4020000a2
:020000040000fa
:04007800e40200009e
:020000040000fa
:04007c00e40200009a
:020000040000fa
:04008000e402000096
:020000040000fa
:04008400e402000092
:020000040000fa
:04008800e40200008e
:020000040000fa
:04008c00e40200008a
:020000040000fa
:04009000e402000086
:020000040000fa
:04009400e402000082
:020000040000fa
:04009800e40200007e
:020000040000fa
:04009c00e40200007a
:020000040000fa
:0400a000e402000076
:020000040000fa
:0400a400e402000072
:020000040000fa
:0400a800e40200006e
:020000040000fa
:0400ac00e40200006a
:020000040000fa
:0400b000e402000066
:020000040000fa
:0400b400e402000062
:020000040000fa
:0400b800e40200005e
:020000040000fa
:0400bc00e40200005a
:020000040000fa
:0400c000e402000056
:020000040000fa
:0400c400e402000052
:020000040000fa
:0400c800e40200004e
:020000040000fa
:0400cc00e40200004a
:020000040000fa
:0400d000e402000046
:020000040000fa
:0400d400e402000042
:020000040000fa
:0400d800e40200003e
:020000040000fa
:0400dc00e40200003a
:020000040000fa
:0400e000e402000036
:020000040000fa
:0400e400e402000032
:020000040000fa
:0400e800e40200002e
:020000040000fa
:0400ec00e40200002a
:020000040000fa
:0400f000e402000026
:020000040000fa
:0400f400e402000022
:020000040000fa
:0400f800e40200001e
:020000040000fa
:0400fc00e40200001a
:020000040000fa
:04010000e402000015
:020000040000fa
:04010400e402000011
:020000040000fa
:04010800e40200000d
:020000040000fa
:04010c00e402000009
:020000040000fa
:04011000e402000005
:020000040000fa
:04011400e402000001
:020000040000fa
:04011800e4020000fd
:020000040000fa
:04011c00e4020000f9
:020000040000fa
:04012000e4020000f5
:020000040000fa
:04012400e4020000f1
:020000040000fa
:04012800e4020000ed
:020000040000fa
:04012c00e4020000e9
:020000040000fa
:04013000e4020000e5
:020000040000fa
:04013400e4020000e1
:020000040000fa
:04013800e4020000dd
:020000040000fa
:04013c00e4020000d9
:020000040000fa
:04014000e4020000d5
:020000040000fa
:04014400e4020000d1
:020000040000fa
:04014800e4020000cd
:020000040000fa
:04014c00e4020000c9
:020000040000fa
:04015000e4020000c5
:020000040000fa
:04015400e4020000c1
:020000040000fa
:04015800e4020000bd
:020000040000fa
:04015c00e4020000b9
:020000040000fa
:04016000e4020000b5
:020000040000fa
:04016400e4020000b1
:020000040000fa
:04016800e4020000ad
:020000040000fa
:04016c00e4020000a9
:020000040000fa
:04017000e4020000a5
:020000040000fa
:04017400e4020000a1
:020000040000fa
:04017800e40200009d
:020000040000fa
:04017c00e402000099
:020000040000fa
:04018000e402000095
:020000040000fa
:04018400e402000091
:020000040000fa
:04018800e40200008d
:020000040000fa
:04018c00e402000089
:020000040000fa
:04019000e402000085
:020000040000fa
:04019400e402000081
:020000040000fa
:04019800e40200007d
:020000040000fa
:04019c00e402000079
:020000040000fa
:0401a000e402000075
:020000040000fa
:0401a400e402000071
:020000040000fa
:0401a800e40200006d
:020000040000fa
:0401ac00e402000069
:020000040000fa
:0401b000e402000065
:020000040000fa
:0401b400e402000061
:020000040000fa
:0401b800e40200005d
:020000040000fa
:0401bc00e402000059
:020000040000fa
:0401c000e402000055
:020000040000fa
:0401c400e402000051
:020000040000fa
:0401c800e40200004d
:020000040000fa
:0401cc00e402000049
:020000040000fa
:0401d000e402000045
:020000040000fa
:0401d400e402000041
:020000040000fa
:0401d800e40200003d
:020000040000fa
:0401dc00e402000039
:020000040000fa
:0401e000e402000035
:020000040000fa
:0401e400e402000031
:020000040000fa
:0401e800e40200002d
:020000040000fa
:0401ec00e402000029
:020000040000fa
:0401f000e402000025
:020000040000fa
:0401f400e402000021
:020000040000fa
:0401f800e40200001d
:020000040000fa
:0401fc00e402000019
:020000040000fa
:10020000af4321000e7f24000e0188000000000093
:10021000000020000000e000020032000001200089
:100220002002880014000700e90007000000e00039
:1002300003003a00802f2000010020000200370058
:100240000000200001002000810f7000010032003a
:1002500014000700000020000000e000020032004f
:100260000000020000000000fe0702000000000085
:100270000040da000000fe004440a90020002000f9
:100280000000e00003003200100020009001880010
:100290004440a800000006008a1f78008b1f7800e9
:1002a00000000600a1028800800478000000eb0036
:1002b0001f003700e284440054a0b4009905ba003e
:1002c000e284440054a0b4009906ba00e2844400d9
:1002d00054a0b4000006eb00476fde00fd07b2003b
:1002e000ae018800636ce10003003a00eaff0700fa
:1002f0000000eb000e003700606ce10008003a00df
:10030000004deb000a05e800020039003420ec0043
:100310000af0a0008b05e900f9ff3e000400370059
:100320006168e100010032000086eb000b0007006d
:1003300019c7ba001905ba000e04e00003003a001c
:100340000a00e000dbff3a0000000600fe07b200f2
:10035000ae0288008a047800f5ff37000cd0a300b5
:10036000e20f4d001c00390089027800354dba00bb
:100370000a05e800020039003420ec000af0a00071
:100380008b05e9000f003200254dba000a05e80090
:10039000020039003420ec000af0a0008b05e900cf
:1003a000080032000c00e0000600320015cdba0053
:1003b0000a05e800020039003420ec000af0a00031
:1003c0008b05e9008984e80054a0b4000b00e0002c
:1003d000e2ff3a00000006009902ba00055d7800cd
:1003e0008b05e900f7ff3200c82ade00055d7800c2
:1003f0008b05e900f3ff32000c00e000f1ff320052
:1004000019ddba00eeff37006208040000000000aa
:10041000f6070400000000003600f800809fbe00d0
:10042000829fbe00849fbe00869fbe000000fa002f
:100430008020a9000000eb00b90307000080fa004b
:100440004f03be004f02be004f01be004f00be0072
:100450003600f900004006003600f800809fbe001c
:10046000829fbe00849fbe00869fbe000000fa00ef
:10047000b00307008040a90010002000a803070077
:100480000080fa004f03be004f02be004f01be00c5
:100490004f00be003600f900004006003600f800ac
:1004a000809fbe00829fbe00849fbe00869fbe00cc
:1004b0000000fa008060a9002000200098030700d7
:1004c0000080fa004f03be004f02be004f01be0085
:1004d0004f00be003600f900004006003600f8006c
:1004e000809fbe00829fbe00849fbe00869fbe008c
:1004f0000000fa008080a900300020008803070077
:100500000080fa004f03be004f02be004f01be0044
:100510004f00be003600f900004006003600f8002b
:10052000809fbe00829fbe00849fbe00869fbe004b
:100530000000fa008600a900700020007803070080
:100540000080fa004f03be004f02be004f01be0004
:100550004f00be003600f900004006003600f800eb
:10056000809fbe00829fbe00849fbe00869fbe000b
:100570000000fa00404080000000e000020032006d
:1005800040408000000001009043210010407800ae
:100590008040e8009043210001487800804321001a
:1005a00011c0b300014878008860a9000080fa00fb
:1005b0004f03be004f02be004f01be004f00be0001
:1005c0003600f900004006000040da000000fe009e
:1005d000000005008001780002003700b159780062
:1005e0000201e9000200e000fcff3a000000060002
:020000040000fa
:1005f0001814000020000000800000000608000021
:100600000200000082000000ffff0000381400001c
:100610000200000080000000080800000200000046
:10062000800000001610000002040000820000009c
:1006300022737400617274002d2d24003031320059
:100640003334350036373800396162006364650041
:1006500066303100323334003536370038396100c6
:100660006263640065663000313233003435360031
:1006700037383900616263006465660030313200ea
:100680003334350036373800396162006364650001
:100690006630310032333400353637003839610086
:1006a00062636400656630003132330034353600f1
:1006b00037383900616263006465660030313200aa
:1006c00033343500363738003961620063646500c1
:1006d0006630310032333400353637003839610046
:1006e00062636400656630003132330034353600b1
:1006f000373839006162630064656600303132006a
:100700003334350036373800396162006364650080
:100710006630310032333400353637003839610005
:100720006263640065663000313233003435360070
:100730003738390061626300646566003031320029
:100740003334350036373800396162006364650040
:1007500066303100323334003536370038396100c5
:100760006263640065663000313233003435360030
:1007700037383900616263006465660030313200e9
:100780003334350036373800396162006364650000
:100790006630310032333400353637003839610085
:1007a00062636400656630003132330034353600f0
:1007b00037383900616263006465660030313200a9
:1007c00033343500363738003961620063646500c0
:1007d0006630310032333400353637003839610045
:1007e00062636400656630003132330034353600b0
:1007f0003738390061626300646566003031320069
:10080000333435003637380039616200636465007f
:100810006630310032333400353637003839610004
:10082000626364006566300031323300343536006f
:100830003738390061626300646566003031320028
:10084000333435003637380039616200636465003f
:1008500066303100323334003536370038396100c4
:10086000626364006566300031323300343536002f
:1008700037383900616263006465660030313200e8
:1008800033343500363738003961620063646500ff
:100890006630310032333400353637003839610084
:1008a00062636400656630003132330034353600ef
:1008b00037383900616263006465660030313200a8
:1008c00033343500363738003961620063646500bf
:1008d0006630310032333400353637003839610044
:1008e00062636400656630003132330034353600af
:1008f0003738390061626300646566003031320068
:10090000333435003637380039616200636465007e
:100910006630310032333400353637003839610003
:10092000626364006566300031323300343536006e
:100930003738390061626300646566003031320027
:10094000333435003637380039616200636465003e
:1009500066303100323334003536370038396100c3
:10096000626364006566300031323300343536002e
:1009700037383900616263006465660030313200e7
:1009800033343500363738003961620063646500fe
:100990006630310032333400353637003839610083
:1009a00062636400656630003132330034353600ee
:1009b00037383900616263006465660030313200a7
:1009c00033343500363738003961620063646500be
:1009d0006630310032333400353637003839610043
:1009e00062636400656630003132330034353600ae
:1009f0003738390061626300646566003031320067
:100a0000333435003637380039616200636465007d
:100a10006630310032333400353637003839610002
:100a2000626364006566300031323300343536006d
:100a30003738390061626300646566003031320026
:100a4000333435003637380039616200636465003d
:100a500066303100323334003536370038396100c2
:100a6000626364006566300031323300343536002d
:100a700037383900616263006465660030313200e6
:100a800033343500363738003961620063646500fd
:100a90006630310032333400353637003839610082
:100aa00062636400656630003132330034353600ed
:100ab00037383900616263006465660030313200a6
:100ac00033343500363738003961620063646500bd
:100ad0006630310032333400353637003839610042
:100ae00062636400656630003132330034353600ad
:100af0003738390061626300646566003031320066
:100b0000333435003637380039616200636465007c
:100b10006630310032333400353637003839610001
:100b2000626364006566300031323300343536006c
:100b30003738390061626300646566003031320025
:100b4000333435003637380039616200636465003c
:100b500066303100323334003536370038396100c1
:100b6000626364006566300031323300343536002c
:100b7000373839006162630064656600242d2d00fa
:100b8000656e6400220000000c0800000a080000e6
:100b90008000000000080000060000008200000045
:100ba00005040500040b00000a0800000200000014
:080bb0008000000000000000bd
:020000040000fa
:100bb8000000fa0000012000902088001424ef00b3
:100bc8001824ef002024ef002424ef002624ef004f
:100bd8002824ef002a24ef00100228008020880033
:100be8000080fa00000006000400fa00000f7800f8
:100bf8001107980000000000c0208000620060001b
:100c08000000e000fcff3a001e0078001040780069
:100c18000080fb00e020880000000000c120800068
:100c280000022000008060000000e000fbff3a00a6
:100c3800e0208000804078001e0090000148780085
:100c48000080fa00000006001800fa00100f980053
:100c5800210f9800320f98000000eb00000f780079
:100c68000000eb00100798000000eb0070079800e8
:100c78000000eb00000f98001000200060079800ab
:100c88001e0890000000e00005003a000000eb009c
:100c980050079800700047002007980004003700ac
:100ca800ee009000510798009e08900021079800d8
:100cb8003e0890000000e00005003a000000eb004c
:100cc800400798006e00470030079800050037007d
:100cd800ee00900041079800be0890003107980088
:100ce80000000000c0208000620060000000e000fa
:100cf800fcff3a001d003700c02080006200600041
:100d08000000e00009003a002e0090001040780032
:100d18000080fb00e0208800ae0090005e0090009c
:100d280000804000200798001e0fe800c1208000c6
:100d380000022000008060000000e0000b003a0084
:100d4800e0208000804078003e0090000148780054
:100d5800be0090004e0090000080400030079800d0
:100d68001e0090000000e800100798002e08900070
:100d78009e007800808f5000dfff39001000370098
:100d8800c120800000022000008060000000e00018
:100d98000b003a00e0208000804078003e00900080
:100da80001487800be0090004e009000008040008e
:100db800300798001e0090000000e8001007980017
:100dc8009e0090002e089000808f5000ecff3900a4
:100dd8001e0078000080fa00000006000400fa00f7
:100de800204798000e80e8008e0078007eff0700fc
:100df8001e4078000080fa00000006000600fa0095
:100e0800000f780011079800220798002e01900023
:100e18009e0090001e0078008bff07000080fa00fb
:100e2800000006000000fa008120800000802000f9
:100e3800008060000000e000020032002000200076
:100e480008003700812080000040200000806000fa
:100e58000000e0000200320010002000010037000e
:100e68000000eb000080fa00000006000000fa0015
:100e7800c02080000080fa00000006000200fa008e
:100e8800004f7800c080200041c7b30001487800b7
:100e9800d08020001e487800e080200041c0b300c8
:100ea80001487800f08020008040eb00014878007d
:100eb800008120001240200061012100c3fd0700cd
:100ec8000080fa00000006000200fa000000eb00b3
:100ed800000f7800703480004400de00614060003c
:100ee8000004a200614060000080fb006100600017
:100ef8004400dd00713480000140a1000100700051
:100f0800703488005140800010c0b300e78f500053
:100f1800010036000040eb008100e80051408800e5
:100f28000004e0002d00320004c8bf00d3ff070012
:100f380010c120001e014000504020009e005000bb
:100f4800c08020001e004000acff0700000f7800a2
:100f5800404020009e007800808f5000f4ff36004b
:100f680050408000610060000000e0000f003a007f
:100f780004c8bf000040e80004e8b700d033800090
:100f88004400de00614060000004a200614060008f
:100f98000080fb00610060004400dd00d133800068
:100fa8000140a10001007000d03388007034800037
:100fb8004300de00614060000004a2006140600060
:100fc8000080fb00610060004300dd007134800098
:100fd8000130a10001007000703488000080fa0020
:100fe800000006000000fa00b7ff07000080fa00c2
:100ff800000006000000fa00db000700607f200008
:10100800310007008ea6a900ffff37000000fa0094
:101018009021ef0080d02300900c88000002280067
:10102800a00c8800404080000000e00002003a0068
:1010380020862000240007008860a9009860a80086
:10104800804321008040eb00014878000080fa00ce
:10105800000006000200fa00000f78009e007800e9
:10106800910c8800804321008040eb000148780003
:101078000080fa00000006000000fa00900c8000d2
:101088000080fa00000006000200fa00000f780055
:101098009e007800810c8800804321008040eb008e
:1010a800014878000080fa00000006000000fa00fd
:1010b800800c80000080fa00000006000000fa00a2
:1010c8000080fa00000006000200fa00000f780015
:1010d8009860a9009e007800414088009860a800a8
:1010e8000080fa00000006000000fa00804321009a
:1010f8008040eb00014878009860a80095e1a800be
:101108000080fa00000006000000fa0095e1a9003e
:101118009860a9000080fa00000006000200fa00aa
:1011280080432100104f78001e4078000004e00042
:1011380003003200804321008040eb000148780022
:101148001e4078000080fa00000006000000fa0047
:1011580090432100104078000080fb000080fa00d6
:10116800000006000000fa00904321008040eb00d8
:10117800014878000080fa00000006000000fa002c
:101188006626ef0000012000d0338800800320008d
:101198007034880040f9270010338800d0fe2f00f3
:1011a800b0338800703c2000503488007426ef006b
:1011b8008826ef009c26ef007226ef008626ef00b7
:1011c8009a26ef006826ef007c26ef009026ef00b5
:1011d8004000200050338800c0202f00f0338800e2
:1011e800700020009034880001088000f00b200077
:1011f80000816000600420007105200003102000b9
:10120800804978008149780082497800713f8000e0
:1012180000f82f0000806000c000b300703f880015
:10122800713f8000f00f28008080600000b020002f
:1012380001007000703f8800e13d800000fc2f0035
:1012480000806000e03d8800a13e8000f00f28008b
:101258008080600000a0200001007000a03e88008f
:1012680000088000000178000260a00060042000ef
:10127800710520000310200080497800814978001a
:10128800824978000080fa00000006000000fa0099
:1012980000002300100888000621ef006821ef00f5
:1012a8006a21ef000821ef00007020005008880034
:1012b8000c21ef000e21ef007821ef007a21ef00da
:1012c8007c21ef007e21ef008021ef008221ef00da
:1012d8008421ef008621ef000001eb008007200049
:1012e800a109200013102000804978008149780066
:1012f800824978000001eb0060042000710520009d
:1013080003102000804978008149780082497800dc
:101318000080fa00000006000200fa00000f7800c2
:101328009e00780031408800ffff37000000fa0077
:1013380080412100800778000043210000018800d7
:101348000080fa00000006000000fa004105800055
:10135800f0ff28000080600000c0a0004005880061
:101368000080fa00000006000000fa0083ff070072
:10137800c6ff0700f4ff07000dfe070023ff070064
:081388000080fa0000000600dd
:020000040000fa
:020000040002f8
:04be0000ffffff0041
:020000040000fa
:020000040002f8
:04be2000ffffff0021
:020000040000fa
:020000040002f8
:04be300078ffff0098
:020000040000fa
:020000040002f8
:04be3800b7ffff0051
:020000040000fa
:020000040002f8
:04be40009fffff0061
:020000040000fa
:020000040002f8
:04be4800ffffff00f9
:020000040000fa
:020000040002f8
:04be5000deffff0012
:020000040000fa
:020000040002f8
:04be5800ffffff00e9
:00000001FF
