:020000040000fa
:080000000001040000000000f3
:020000040000fa
:040008001c020000d6
:020000040000fa
:04000c005e02000090
:020000040000fa
:040010009e0200004c
:020000040000fa
:040014003c020000aa
:020000040000fa
:040018007e02000064
:020000040000fa
:04001c004403000099
:020000040000fa
:040020004403000095
:020000040000fa
:040024004403000091
:020000040000fa
:04002800440300008d
:020000040000fa
:04002c004403000089
:020000040000fa
:040030004403000085
:020000040000fa
:040034000e030000b7
:020000040000fa
:04003800440300007d
:020000040000fa
:04003c004403000079
:020000040000fa
:040040004403000075
:020000040000fa
:040044004403000071
:020000040000fa
:04004800440300006d
:020000040000fa
:04004c004403000069
:020000040000fa
:040050004403000065
:020000040000fa
:040054004403000061
:020000040000fa
:04005800440300005d
:020000040000fa
:04005c004403000059
:020000040000fa
:040060004403000055
:020000040000fa
:040064004403000051
:020000040000fa
:04006800440300004d
:020000040000fa
:04006c004403000049
:020000040000fa
:040070004403000045
:020000040000fa
:04007400be020000c8
:020000040000fa
:04007800440300003d
:020000040000fa
:04007c004403000039
:020000040000fa
:040080004403000035
:020000040000fa
:040084004403000031
:020000040000fa
:04008800440300002d
:020000040000fa
:04008c004403000029
:020000040000fa
:040090004403000025
:020000040000fa
:040094004403000021
:020000040000fa
:04009800440300001d
:020000040000fa
:04009c004403000019
:020000040000fa
:0400a0004403000015
:020000040000fa
:0400a4004403000011
:020000040000fa
:0400a800440300000d
:020000040000fa
:0400ac004403000009
:020000040000fa
:0400b0004403000005
:020000040000fa
:0400b4004403000001
:020000040000fa
:0400b80044030000fd
:020000040000fa
:0400bc0044030000f9
:020000040000fa
:0400c00044030000f5
:020000040000fa
:0400c40044030000f1
:020000040000fa
:0400c80044030000ed
:020000040000fa
:0400cc0044030000e9
:020000040000fa
:0400d00044030000e5
:020000040000fa
:0400d40044030000e1
:020000040000fa
:0400d80044030000dd
:020000040000fa
:0400dc0044030000d9
:020000040000fa
:0400e00044030000d5
:020000040000fa
:0400e40044030000d1
:020000040000fa
:0400e80044030000cd
:020000040000fa
:0400ec0044030000c9
:020000040000fa
:0400f00044030000c5
:020000040000fa
:0400f40044030000c1
:020000040000fa
:0400f80044030000bd
:020000040000fa
:0400fc0044030000b9
:020000040000fa
:0401000044030000b4
:020000040000fa
:0401040044030000b0
:020000040000fa
:0401080044030000ac
:020000040000fa
:04010c0044030000a8
:020000040000fa
:0401100044030000a4
:020000040000fa
:0401140044030000a0
:020000040000fa
:04011800440300009c
:020000040000fa
:04011c004403000098
:020000040000fa
:040120004403000094
:020000040000fa
:040124004403000090
:020000040000fa
:04012800440300008c
:020000040000fa
:04012c004403000088
:020000040000fa
:040130004403000084
:020000040000fa
:040134004403000080
:020000040000fa
:04013800440300007c
:020000040000fa
:04013c004403000078
:020000040000fa
:040140004403000074
:020000040000fa
:040144004403000070
:020000040000fa
:04014800440300006c
:020000040000fa
:04014c004403000068
:020000040000fa
:040150004403000064
:020000040000fa
:040154004403000060
:020000040000fa
:04015800440300005c
:020000040000fa
:04015c004403000058
:020000040000fa
:040160004403000054
:020000040000fa
:040164004403000050
:020000040000fa
:04016800440300004c
:020000040000fa
:04016c004403000048
:020000040000fa
:040170004403000044
:020000040000fa
:040174004403000040
:020000040000fa
:04017800440300003c
:020000040000fa
:04017c004403000038
:020000040000fa
:040180004403000034
:020000040000fa
:040184004403000030
:020000040000fa
:04018800440300002c
:020000040000fa
:04018c004403000028
:020000040000fa
:040190004403000024
:020000040000fa
:040194004403000020
:020000040000fa
:04019800440300001c
:020000040000fa
:04019c004403000018
:020000040000fa
:0401a0004403000014
:020000040000fa
:0401a4004403000010
:020000040000fa
:0401a800440300000c
:020000040000fa
:0401ac004403000008
:020000040000fa
:0401b0004403000004
:020000040000fa
:0401b4004403000000
:020000040000fa
:0401b80044030000fc
:020000040000fa
:0401bc0044030000f8
:020000040000fa
:0401c00044030000f4
:020000040000fa
:0401c40044030000f0
:020000040000fa
:0401c80044030000ec
:020000040000fa
:0401cc0044030000e8
:020000040000fa
:0401d00044030000e4
:020000040000fa
:0401d40044030000e0
:020000040000fa
:0401d80044030000dc
:020000040000fa
:0401dc0044030000d8
:020000040000fa
:0401e00044030000d4
:020000040000fa
:0401e40044030000d0
:020000040000fa
:0401e80044030000cc
:020000040000fa
:0401ec0044030000c8
:020000040000fa
:0401f00044030000c4
:020000040000fa
:0401f40044030000c0
:020000040000fa
:0401f80044030000bc
:020000040000fa
:0401fc0044030000b8
:020000040000fa
:10020000ef0321000e7f24000e0188000000000093
:10021000000020000000e000020032000001200089
:100220002002880014000700190107000000e00008
:1002300003003a00c08120000100200002003700c6
:100240000000200001002000810f7000010032003a
:1002500014000700000020000000e000020032004f
:100260000000020000000000240402000000000062
:100270000040da000000fe004440a90020002000f9
:100280000000e00003003200100020009001880010
:100290004440a800000006008a1f78008b1f7800e9
:1002a00000000600a1028800800478000000eb0036
:1002b0001f003700e284440054a0b4009905ba003e
:1002c000e284440054a0b4009906ba00e2844400d9
:1002d00054a0b4000006eb00476fde00fd07b2003b
:1002e000ae018800636ce10003003a00eaff0700fa
:1002f0000000eb000e003700606ce10008003a00df
:10030000004deb000a05e800020039003420ec0043
:100310000af0a0008b05e900f9ff3e000400370059
:100320006168e100010032000086eb000b0007006d
:1003300019c7ba001905ba000e04e00003003a001c
:100340000a00e000dbff3a0000000600fe07b200f2
:10035000ae0288008a047800f5ff37000cd0a300b5
:10036000e20f4d001c00390089027800354dba00bb
:100370000a05e800020039003420ec000af0a00071
:100380008b05e9000f003200254dba000a05e80090
:10039000020039003420ec000af0a0008b05e900cf
:1003a000080032000c00e0000600320015cdba0053
:1003b0000a05e800020039003420ec000af0a00031
:1003c0008b05e9008984e80054a0b4000b00e0002c
:1003d000e2ff3a00000006009902ba00055d7800cd
:1003e0008b05e900f7ff3200c82ade00055d7800c2
:1003f0008b05e900f3ff32000c00e000f1ff320052
:1004000019ddba00eeff3700da0604000000000034
:10041000e006040000000000760704000000000071
:10042000d603040000000000e00304000000000008
:10043000ea030400000000003600f800809fbe00c0
:10044000829fbe00849fbe00869fbe000000fa000f
:100450008020a9000000eb00200307000080fa00c4
:100460004f03be004f02be004f01be004f00be0052
:100470003600f900004006003600f800809fbe00fc
:10048000829fbe00849fbe00869fbe000000fa00cf
:10049000170307008040a900100020000f03070089
:1004a0000080fa004f03be004f02be004f01be00a5
:1004b0004f00be003600f900004006003600f8008c
:1004c000809fbe00829fbe00849fbe00869fbe00ac
:1004d0000000fa008060a90020002000ff02070051
:1004e0000080fa004f03be004f02be004f01be0065
:1004f0004f00be003600f900004006003600f8004c
:10050000809fbe00829fbe00849fbe00869fbe006b
:100510000000fa008080a90030002000ef020700f0
:100520000080fa004f03be004f02be004f01be0024
:100530004f00be003600f900004006003600f8000b
:10054000809fbe00829fbe00849fbe00869fbe002b
:100550000000fa008600a90070002000df020700fa
:100560000080fa004f03be004f02be004f01be00e4
:100570004f00be003600f900004006003600f800cb
:10058000809fbe00829fbe00849fbe00869fbe00eb
:100590000000fa0050048000680060000000e000e5
:1005a00017003200813380000008200000806000c6
:1005b0000000e00006003200604080000000e00023
:1005c00002003200604080000000010070e6a900d7
:1005d0008133800000402000008060000000e000c7
:1005e00006003200704080000000e000020032008f
:1005f00070408000000001007146a9008a60a900d7
:100600000080fa004f03be004f02be004f01be0043
:100610004f00be003600f900004006003600f8002a
:10062000809fbe00829fbe00849fbe00869fbe004a
:100630000000fa00904080000000e000020032005c
:100640009040800000000100d0032100104078009d
:100650008040e800d003210001487800c003210059
:1006600011c0b300014878008860a9000080fa003a
:100670004f03be004f02be004f01be004f00be0040
:100680003600f900004006000040da000000fe00dd
:040690000000050061
:020000040000fa
:100694000400fa00204798004081200041c7b300bd
:1006a4000148780050812000ae4090000148780055
:1006b4006081200041c0b300014878004000200060
:1006c400000f7800070037002e40900062c2b3008c
:1006d40082404000408120001e0040000148780014
:1006e4001e0fe800304020009e007800808f5000ec
:1006f400f5ff36008081200031c5b3000148780041
:100704009081200041c5b30001487800a0812000f9
:1007140011c4b30001487800b081200021c5b300a2
:1007240001487800c081200041c5b3000148780029
:1007340050c1200051c4b3000148780060c12000ba
:10074400e1c4b3000148780070c1200041c4b30083
:10075400014878000080fa00000006000200fa0058
:100764000000eb00000f78000ac8bf00c8ff0700b4
:1007740080c120001e014000404020009e00500027
:10078400408120001e0040001a010700000f78007d
:10079400304020009e007800808f5000f4ff360027
:1007a4000080fa00000006000000fa0010c0b30048
:1007b40000e8b7000080fa00000006000000fa001c
:1007c40010c0b30001e8b7000080fa000000060082
:1007d4000000fa0010c0b30002e8b70070348000d3
:1007e4004400de00614060000004a200614060003b
:1007f4000080fb00610060004400dd007134800073
:100804000140a10001007000703488007034800041
:100814004300de00614060000004a200614060000b
:100824000080fb00610060004300dd007134800043
:100834000130a10001007000703488000080fa00cb
:10084400000006000000fa002f020700603d2000af
:100854005d010700003e200069010700a03e200062
:10086400a40107008ea6a9008e86a9008e66a800a2
:10087400010037000000000000c8bf000004e000d1
:10088400220032001c00370002c8bf000004e00050
:10089400190032000268ef00b0ff0700204080001a
:1008a4000000e800204088000ac8bf000040e800bb
:1008b4000ae8b7000ac8bf00ee4f50000200360035
:1008c400b0c0b3000ae8b700d03380004400de00b3
:1008d400614060000004a200614060000080fb00f1
:1008e400610060004400dd00d13380000140a100bc
:1008f40001007000d0338800204080000000e00038
:10090400e1ff32000428ef000068ef0001c8bf00d7
:100914000004e000d7ff32001c00370002c8bf000b
:100924000004e000190032000268ef008bff0700aa
:10093400204080000000e800204088000ac8bf0072
:100944000040e8000ae8b7000ac8bf00ee4f5000b4
:1009540002003600b0c0b3000ae8b700d03380000c
:100964004400de00614060000004a20061406000b9
:100974000080fb00610060004400dd00d133800092
:100984000140a10001007000d033880020408000a5
:10099400e70f5000e1ff36000428ef000168ef0084
:1009a400b5ff37000000fa00000120009020880005
:1009b4001424ef001824ef00000420000021880014
:1009c4002424ef002624ef002824ef002a24ef003b
:1009d40010022800802088000080fa000000060031
:1009e4000400fa00000f78001107980000000000ce
:1009f400c0208000620060000000e000fcff3a00bc
:100a04001e007800104078000080fb00e020880081
:100a140000000000c120800000022000008060006f
:100a24000000e000fbff3a00e020800080407800f6
:100a34001e009000014878000080fa0000000600c3
:100a44001800fa00100f9800210f9800320f980038
:100a54000000eb00000f78000000eb001007980086
:100a64000000eb00700798000000eb00000f9800f6
:100a740010002000600798001e0890000000e000ad
:100a840005003a000000eb00500798007000470092
:100a94002007980004003700ee00900051079800ea
:100aa4009e089000210798003e0890000000e00096
:100ab40005003a000000eb00400798006e00470074
:100ac4003007980005003700ee00900041079800b9
:100ad400be0890003107980000000000c02080008c
:100ae400620060000000e000fcff3a001d003700d7
:100af400c0208000620060000000e00009003a00ad
:100b04002e009000104078000080fb00e020880058
:100b1400ae0090005e009000008040002007980026
:100b24001e0fe800c1208000000220000080600049
:100b34000000e0000b003a00e020800080407800d4
:100b44003e00900001487800be0090004e009000e6
:100b540000804000300798001e0090000000e8006c
:100b6400100798002e0890009e007800808f500097
:100b7400dfff390010003700c12080000002200090
:100b8400008060000000e0000b003a00e0208000dc
:100b9400804078003e00900001487800be0090003c
:100ba4004e00900000804000300798001e00900026
:100bb4000000e800100798009e0090002e089000a6
:100bc400808f5000ecff39001e0078000080fa008e
:100bd400000006000400fa00204798000e80e80098
:100be4008e0078007eff07001e4078000080fa0027
:100bf400000006000600fa00000f780011079800b4
:100c0400220798002e0190009e0090001e0078009c
:100c14008bff07000080fa00000006000000fa00c5
:100c24008120800000802000008060000000e0003f
:100c340002003200200020000800370081208000dc
:100c440000402000008060000000e000020032004c
:100c540010002000010037000000eb000080fa00c3
:100c6400000006000000fa00c02080000080fa00a6
:100c7400000006000000fa006626ef0000012400d0
:100c8400d0338800800320007034880040f92700a6
:100c940010338800d0fe2b00b0338800703c200055
:100ca400503488007426ef008826ef009c26ef005d
:100cb4007226ef008626ef009a26ef006826ef00e2
:100cc4007c26ef009026ef0040002000503388007f
:100cd400c0202f00f033880070002000903488007a
:100ce40001088000f00b20000081600060042000f7
:100cf40071052000031020008049780081497800a4
:100d040082497800a13e8000f00f280080806000b6
:100d140000a0200001007000a03e8800713f800008
:100d2400f00f28008080600000b0200001007000f7
:100d3400703f8800e13d800000fc2f0000806000cf
:100d4400e03d8800713f800000f82f0000806000c3
:100d5400c000b300703f88000008800000017800e4
:100d64000260a00060042000710520000310200030
:100d74008049780081497800824978006f46a8004c
:100d84006ee6a8007146a90070e6a9005fe6a80017
:100d9400a06d20000c000700006e20001800070062
:100da4008a60a9009a60a8000080fa00000006008a
:100db4000000fa000080fa00000006000000fa00bb
:100dc4000080fa00000006000200fa00000f78001c
:100dd4009a60a9009e007800614088009a60a8008b
:100de4000080fa00000006000200fa00000f7800fc
:100df4001e007800f4ff07000080fa0000000600df
:100e04000200fa00000f78009a60a9009e007800a2
:100e1400714088009a60a8000080fa000000060073
:100e24000200fa00000f78001e007800f4ff0700ab
:100e34000080fa00000006000000fa009021ef0094
:100e440040e82100900c880000032800a00c8800d2
:100e5400904080000000e00002003a00607720002b
:100e6400240007008860a9009860a800c00321003e
:100e74008040eb00014878000080fa000000060082
:100e84000200fa00000f78009e007800910c8800a0
:100e9400c00321008040eb00014878000080fa0084
:100ea400000006000000fa00900c80000080fa00a8
:100eb400000006000200fa00000f78009e0078008f
:100ec400810c8800c00321008040eb0001487800b9
:100ed4000080fa00000006000000fa00800c800088
:100ee4000080fa00000006000000fa000080fa000a
:100ef400000006000200fa00000f78009860a900c4
:100f04009e007800914088009860a8000080fa0054
:100f1400000006000000fa00c00321008040eb003e
:100f2400014878009860a80095e1a8000080fa00c4
:100f3400000006000000fa0095e1a9009860a900ed
:100f44000080fa00000006000200fa00c00321003d
:100f5400104f78001e4078000004e00003003200c7
:100f6400c00321008040eb00014878001e40780057
:100f74000080fa00000006000000fa00d0032100ff
:100f8400104078000080fb000080fa00000006009a
:100f94000000fa00d00321008040eb0001487800f3
:100fa4000080fa00000006000000fa0000002300a0
:100fb400100888000621ef006821ef006a21ef0085
:100fc4000821ef0000702000500888000c21ef0079
:100fd4000e21ef007821ef007a21ef007c21ef0051
:100fe4007e21ef008021ef008221ef008421ef00b9
:100ff4008621ef000001eb0080072000a1092000fa
:1010040013102000804978008149780082497800d3
:101014000001eb0060042000710520000310200093
:101024008049780081497800824978000080fa007c
:0410340000000600b2
:020000040000fa
:101038001c100000200000008000000010080000c4
:101048000200000082000000ffff00000c08000002
:1010580004000000800000003c10000002000000b6
:10106800800000001208000002000000800000005c
:1010780014080000080800008000000000080000b4
:1010880006000000800000000608000006000000be
:101098008200000004040400040b000000000000ab
:020000040000fa
:1010a8000000fa0081058000f0ff28000080600041
:1010b80000c0a0008005880041058000f0ff2800de
:1010c8000080600000c0a000400588000080fa0091
:1010d800000006000200fa00000f78009e00780069
:1010e80081408800ffff37000000fa00c00121009e
:1010f8008007780040032100000188000080fa0082
:10110800000006000000fa00d9fe0700e4ff07000f
:10111800a4ff070022fe070046ff07000080fa0030
:0411280000000600bd
:020000040000fa
:020000040002f8
:04be0000ffffff0041
:020000040000fa
:020000040002f8
:04be2000ffffff0021
:020000040000fa
:020000040002f8
:04be300078ffff0098
:020000040000fa
:020000040002f8
:04be3800b7ffff0051
:020000040000fa
:020000040002f8
:04be40009fffff0061
:020000040000fa
:020000040002f8
:04be4800ffffff00f9
:020000040000fa
:020000040002f8
:04be5000deffff0012
:020000040000fa
:020000040002f8
:04be5800ffffff00e9
:00000001FF
