:020000040000fa
:10000000f07f002055070000b10a0000b30a00008d
:1000100000000000000000000000000000000000e0
:10002000000000000000000000000000af0a000017
:100030000000000000000000af0a0000af0a00004e
:10004000af0a0000af0a0000af0a0000e10900009b
:1000500049080000af0a0000af0a0000af0a000024
:10006000af0a0000d1000000af0a0000af0a000094
:10007000af0a0000af0a0000af0a0000af0a00009c
:10008000af0a0000af0a0000af0a0000af0a00008c
:10009000af0a00000000000000000000af0a0000ee
:1000a000af0a0000af0a0000af0a0000af0a00006c
:020000040000fa
:1000b000f8b5c046f8bc08bc9e4670472908000049
:1000c000f8b5c046f8bc08bc9e4670470108000061
:020000040000fa
:1000d00010b5564b9b7d002b53d0544a51680723d3
:1000e0000b40127e52075bd5504a906a50494a69cc
:1000f000c9688a4254d2002b44d14d4b5968541cd4
:100100005c618854494b1b7edb0718d5474b0122a5
:100110001a75474b9a699b689a4258d2444b1968a2
:10012000501c98618a5c414b9a62414b9a699b686a
:100130009a4262d03e4b5a69db689a4269d03b4b87
:100140001b7e9b0716d53b4b1b78002b19d0384bd9
:100150005a69db689a4211d1354b00221a7733492c
:100160000720087533490a701b6a002b09d0304af2
:10017000506a98472f4b1b78002b02d02b4b022242
:100180009a7510bd2a4b5968541c5c61520050523c
:10019000264b1b7edb07d2d5244b01221a7508e0c3
:1001a000224a127ed207cad5204a01211175002b9e
:1001b000afd01f4a93699268934213d21c4a1168c8
:1001c000581c90615b005a5a184b9a62ade7184b65
:1001d0001b69002b23d0154aff219162013b144a71
:1001e0001361a2e7124b1b69002b18d00f4a12496a
:1001f0009162013b0e4a136197e70d4b1b69002b7f
:1002000098d10c4b01221a70084b1b7e9b079ed481
:10021000b4e7064b01229a7503321a758fe7044b37
:100220009a699b689a4200d084e7eae70008004296
:0c023000c404002022050020ffff000095
:020000040000fa
:10023c0070b5060000294fd000284dd04648007fed
:10024c00002800d085e0454c656807242c40012c23
:10025c0049d04148066042600024446184610461d5
:10026c003000441ea041404201403b488160501e7a
:10027c00824152421a403848c26001240477374800
:10028c00007e400705d5354c0420a56a257e054225
:10029c00fbd13248448b04252c434483047e8025b7
:1002ac002c4304768a4202d9501a2b4c20612b48dd
:1002bc00406840072bd1284a92698a421cd2307878
:1002cc0026498862013224498a61002b3cd0234b99
:1002dc0004229a7501203de00020002b3ad0002a20
:1002ec00acd1002036e0002901d0cc0732d4002b51
:1002fc00afd0dc07add52de0174a1269002ae4d047
:10030c001649ff208862013a13490a61dde7490862
:10031c00114881600469640804615208c2608269f2
:10032c00914208d93188c905c90d0c488162013246
:10033c0009498a61c9e7002cc7d0084a084991626b
:10034c00013c054a1461c0e7044b01229a75012057
:10035c0000e0002070bdc046c4040020000800422c
:04036c00ff0100008d
:020000040000fa
:1003700070b5002000f008fb00223949002000f091
:100380001bfb00223749012000f016fb00213648f4
:1003900000f074fb0021354800f06afb00f056fbca
:1003a000334b802292035a6152085a61520a9a6171
:1003b000304c25000ce0304b0b221a7024e02f4b00
:1003c00000221a802e4b1a702e4b1b78002b20d146
:1003d0002b4b1b78002bf7d0284e3288002aeed109
:1003e0002378002bfad0234b00221a7000f00cfb6c
:1003f000224a1388013313801f4b1b780133dbb271
:100400000e2bd8d81c4a1370194b80229204da6143
:10041000e3e71a4e3388072b05d9184b00221a80c0
:10042000184b1a70d4e72a78002af4d0114b002216
:100430001a7000f0e9fa114a1388013313800e4b49
:100440001b780133dbb20e2b06d80b4a1370084b16
:1004500080229204da61dde7074b0b221a70f6e77f
:10046000950a0000a10a0000b50a00002d0a00004c
:10047000004400412505002026050020200500201d
:080480002305002024050020e3
:020000040000fa
:10048800f00400201c00000000000000040400200c
:10049800c0000000000000000c0500200c00000057
:1004a80000000000220500200100000000000000fc
:1004b800c40400202c0000000000000020050020db
:1004c80002000000000000000000002004040000fa
:1004d80000000000230500200100000000000000cb
:1004e8002405002001000000000000002505002070
:1004f80001000000000000002605002001000000a7
:10050800010000000b000000180500200400000096
:1005180001000000040400001c0500200400000085
:10052800000000000000000000000000222222223b
:020000040000fa
:100538001f4b00229a619a8c80218a439a841a0060
:100548001023d1680b42fcd01a4b1a68920e3f2a2e
:100558002bd0194b1b689b059b0d92021343144a21
:100568009362022393840e33d1680b42fcd0134b61
:10057800134a5a601a0053785bb2002bfbdb0f4b0f
:10058800104a5a601a0053785bb2002bfbdb0b4b06
:100598000d4a5a800d4a5a800d4a5a800d4b0e4a10
:1005a8001a62034b00221a627047203ad1e7c0460c
:1005b800000800402460800028608000000c004093
:1005c800010301000007010004410000054000008c
:0c05d8001440000000040040040001007a
:020000040000fa
:1005e400f0b5c6461f4a204b00b50021934203d202
:1005f400197001339342fbd10b231c4a9c46083be0
:1006040098461368546819000026214311d0170036
:1006140091680c3700290fd11a19002c03d01e70d1
:1006240001339342fbd13a00136854681900214303
:10063400edd104bc9046f0bd6146c91a1d1951188c
:10064400002c05d05a1c505c187013009542f9d147
:10065400434623405a1e9341a4081c19a4003f1981
:100664003a00e1e7000000200000002088040000b8
:020000040000fa
:100674001d4a137801210b43137053785bb2002b8e
:10068400fbdb194922238b610022ca611f3bcb602b
:10069400164b1a7201321a750f3220201a540c307c
:1006a4001a540c301a540c301a540c301a540c309e
:1006b4001a540c301a540c301a540c301a540c308e
:1006c4001a540c301a540c301a540c301a540c307e
:1006d4001a540b78022213430b700a0053785bb24e
:1006e400002bfbdb7047c0460018004004040020c8
:020000040000fa
:1006f400124a742313705070703b93700023d370ac
:10070400131d0f498c4662442630187001339342fe
:10071400fbd10a4b53221a7101325a71412199714a
:100724001131d9711a72074a0d399954064a09319f
:100734009954064a0a3999547047c046000000206b
:10074400040400000104000002040000030400008b
:020000040000fa
:1007540010b50e4b002b00d098470d4b002b00d04a
:100764009847fff73dff0b4bff2293430a4a9360e0
:100774000a4b98470a4b002b00d09847094b002b93
:1007840000d09847fff7f2fdfee7c04600000000e6
:10079400000000000000000000ed00e091080000ef
:0807a40000000000000000004d
:020000040000fa
:1007ac00bff35f8f62b6114bc02080001a58120243
:1007bc00120ac02109060a431a5008221a60c121e4
:1007cc0089005a58ff2082433f3802435a50102266
:1007dc001a60c22080001a5805491140c02212022a
:1007ec000a431a50802292001a60704700e100e020
:0407fc00ff00fffffc
:020000040000fa
:1008000010b5064c2378002b07d1054b002b02d0e6
:10081000044800e000bf0123237010bdf004002055
:100820000000000000000000044b10b5002b03d0b6
:100830000349044800e000bf10bdc04600000000ae
:08084000f40400200000000098
:020000040000fa
:10084800f0b5c64600b50e4d00240e4f012398465c
:1008580004e03e6101340c35102c0ed02a7ae3b244
:100868009a42f7d13b694646a6401e42f2d02b6811
:10087800002beed068689847ebe704bc9046f0bdc3
:080888000404002000180040e8
:020000040000fa
:1008900070b500260c4d0d4c641ba410a64209d166
:1008a0000026fff705fc0a4d0a4c641ba410a64263
:1008b00005d170bdb300eb5898470136eee7b300a1
:1008c000eb5898470136f2e7bc000000bc0000007e
:0808d000bc000000c0000000a4
:020000040000fa
:1008d8000e4b01221a801a00937a5bb2002bfbdbc5
:1008e8000a4b80221a801a00937a5bb2002bfbdb3a
:1008f800064b802292019a611a00937a5bb2002b10
:10090800fbdb024b0122da717047c046001400403d
:020000040000fa
:100918000b4b00221a621a779a60da60094b882218
:1009280092025a601a00d369002bfcd1054b17229a
:100938001a73054a1a601a00d369002bfcd1704754
:0c094800c4040020000800420e00300033
:020000040000fa
:100954000a4b0b4a1a601a61012240215a54013190
:100964005a5403315a5401315a5401315a54013101
:100974005a54323215395a549a547047004400413b
:040984000008300235
:020000040000fa
:1009880010b50a4b06225a60fff7e0fffff7d0fdcb
:1009980000f064f800f086f8fff7bafffff766fe8c
:1009a800fff796fffff7fefe10bdc046004000416e
:020000040000fa
:1009b80030b543001b189b00064ce3181b7a834292
:1009c80000d030bd43001d18ad00295160194260a8
:0809d800f7e7c046040400200b
:020000040000fa
:1009e00010b5074a107ac0b2064b1871c1211172b6
:1009f0001b68002b02d0034a9168984710bdc0467f
:080a0000001400400c05002069
:020000040000fa
:100a080010b5054b1878fff771fe044b19680448b8
:100a180000f036f810bdc046260500201805002055
:040a280000000020aa
:020000040000fa
:100a2c00c30707d5044b01221a70044b1205da6177
:100a3c00520ada617047c046250500200044004187
:020000040000fa
:100a4c00044a138802210b431380937a5bb2002b68
:080a5c00fbdb704700140040b1
:020000040000fa
:0c0a6400014b82225a60704700400041a4
:020000040000fa
:0c0a7000014b1860996070470c050020d5
:020000040000fa
:0c0a7c00014b186259627047c40400204e
:020000040000fa
:0c0a880010b500230022fff7d5fb10bdc5
:020000040000fa
:0c0a9400014b01221a707047230500205e
:020000040000fa
:0c0aa000014b01221a7070472405002051
:020000040000fa
:020aac00704791
:020000040000fa
:020aae00fee761
:020000040000fa
:020ab000fee75f
:020000040000fa
:020ab200fee75d
:020000040000fa
:020ab400704789
:020000040000fa
:0200000400807a
:0440000077c700d8a6
:020000040000fa
:0200000400807a
:044004005c00ffff5e
:00000001FF
