:020000040000fa
:10000000f87f00209d0a0000370e0000390e000026
:1000100000000000000000000000000000000000e0
:10002000000000000000000000000000350e00008d
:100030000000000000000000350e0000350e00003a
:10004000350e0000350e0000350e0000550d000085
:10005000910b0000350e0000350e0000350e00003b
:10006000350e0000d5040000350e0000350e0000ee
:10007000350e0000350e0000350e0000350e000074
:10008000350e0000350e0000350e0000350e000064
:10009000350e00000000000000000000350e0000da
:1000a000350e0000350e0000350e0000350e000044
:020000040000fa
:1000b000f8b5c046f8bc08bc9e467047710b0000fe
:1000c000f8b5c046f8bc08bc9e467047490b000016
:020000040000fa
:1000d0002273746172742d2d2430313233343536ed
:1000e00037383961626364656630313233343536ae
:1000f000373839616263646566303132333435369e
:10010000373839616263646566303132333435368d
:10011000373839616263646566303132333435367d
:10012000373839616263646566303132333435366d
:10013000373839616263646566303132333435365d
:10014000373839616263646566303132333435364d
:10015000373839616263646566303132333435363d
:10016000373839616263646566303132333435362d
:10017000373839616263646566303132333435361d
:10018000373839616263646566303132333435360d
:1001900037383961626364656630313233343536fd
:1001a00037383961626364656630313233343536ed
:1001b00037383961626364656630313233343536dd
:1001c00037383961626364656630313233343536cd
:1001d00037383961626364656630313233343536bd
:1001e00037383961626364656630313233343536ad
:1001f000373839616263646566303132333435369d
:10020000373839616263646566303132333435368c
:10021000373839616263646566303132333435367c
:10022000373839616263646566303132333435366c
:10023000373839616263646566303132333435365c
:10024000373839616263646566303132333435364c
:10025000373839616263646566303132333435363c
:10026000373839616263646566303132333435362c
:10027000373839616263646566303132333435361c
:10028000373839616263646566303132333435360c
:1002900037383961626364656630313233343536fc
:1002a00037383961626364656630313233343536ec
:1002b00037383961626364656630313233343536dc
:1002c00037383961626364656630313233343536cc
:1002d00037383961626364656630313233343536bc
:1002e00037383961626364656630313233343536ac
:1002f000373839616263646566303132333435369c
:10030000373839616263646566303132333435368b
:10031000373839616263646566303132333435367b
:10032000373839616263646566303132333435366b
:10033000373839616263646566303132333435365b
:10034000373839616263646566303132333435364b
:10035000373839616263646566303132333435363b
:10036000373839616263646566303132333435362b
:10037000373839616263646566303132333435361b
:10038000373839616263646566303132333435360b
:1003900037383961626364656630313233343536fb
:1003a00037383961626364656630313233343536eb
:1003b00037383961626364656630313233343536db
:1003c00037383961626364656630313233343536cb
:1003d00037383961626364656630313233343536bb
:1003e00037383961626364656630313233343536ab
:1003f000373839616263646566303132333435369b
:10040000373839616263646566303132333435368a
:10041000373839616263646566303132333435367a
:10042000373839616263646566303132333435366a
:10043000373839616263646566303132333435365a
:10044000373839616263646566303132333435364a
:10045000373839616263646566303132333435363a
:10046000373839616263646566303132333435362a
:10047000373839616263646566303132333435361a
:10048000373839616263646566303132333435360a
:1004900037383961626364656630313233343536fa
:1004a00037383961626364656630313233343536ea
:1004b00037383961626364656630313233343536da
:1004c000373839616263646566242d2d656e642258
:0404d0000000c04622
:020000040000fa
:1004d40010b5564b9b7d002b53d0544a51680723cb
:1004e4000b40127e52075bd5504a906a50494a69c4
:1004f400c9688a4254d2002b44d14d4b5968541ccc
:100504005c618854494b1b7edb0718d5474b01229d
:100514001a75474b9a699b689a4258d2444b19689a
:10052400501c98618a5c414b9a62414b9a699b6862
:100534009a4262d03e4b5a69db689a4269d03b4b7f
:100544001b7e9b0716d53b4b1b78002b19d0384bd1
:100554005a69db689a4211d1354b00221a77334924
:100564000720087533490a701b6a002b09d0304aea
:10057400506a98472f4b1b78002b02d02b4b02223a
:100584009a7510bd2a4b5968541c5c615200505234
:10059400264b1b7edb07d2d5244b01221a7508e0bb
:1005a400224a127ed207cad5204a01211175002b96
:1005b400afd01f4a93699268934213d21c4a1168c0
:1005c400581c90615b005a5a184b9a62ade7184b5d
:1005d4001b69002b23d0154aff219162013b144a69
:1005e4001361a2e7124b1b69002b18d00f4a124962
:1005f4009162013b0e4a136197e70d4b1b69002b77
:1006040098d10c4b01221a70084b1b7e9b079ed479
:10061400b4e7064b01229a7503321a758fe7044b2f
:100624009a699b689a4200d084e7eae7000800428e
:0c063400c804002005040020ffff0000a7
:020000040000fa
:1006400070b5060000294fd000284dd04648007fe5
:10065000002800d085e0454c656807242c40012c1b
:1006600049d04148066042600024446184610461cd
:100670003000441ea041404201403b488160501e72
:10068000824152421a403848c260012404773748f8
:10069000007e400705d5354c0420a56a257e05421d
:1006a000fbd13248448b04252c434483047e8025af
:1006b0002c4304768a4202d9501a2b4c20612b48d5
:1006c000406840072bd1284a92698a421cd2307870
:1006d00026498862013224498a61002b3cd0234b91
:1006e00004229a7501203de00020002b3ad0002a18
:1006f000acd1002036e0002901d0cc0732d4002b49
:10070000afd0dc07add52de0174a1269002ae4d03e
:100710001649ff208862013a13490a61dde749085a
:10072000114881600469640804615208c2608269ea
:10073000914208d93188c905c90d0c48816201323e
:1007400009498a61c9e7002cc7d0084a0849916263
:10075000013c054a1461c0e7044b01229a7501204f
:1007600000e0002070bdc046c80400200008004220
:04077000ff01000085
:020000040000fa
:1007740070b5002000f0aafa00222349002000f0fe
:10078400d3fa00222149012000f0cefa00212048aa
:1007940000f036fb00211f4800f02cfb00f00efb9c
:1007a4001d4b802292035a6152085a61520a9a617f
:1007b4001a4c1b4e1fe03278002a15d0184b002229
:1007c4001a7000f0d9fa174a138801331380164bb4
:1007d4001b780133dbb20e2b12d8134a13700e4b65
:1007e40080229204da612b88002be4d00d4b002286
:1007f4001a800a4b1a702378002bfcd0094df2e7bb
:10080400094b0b221a70eae71d0e0000290e0000a6
:100814003b0e0000a10d000000440041240500200f
:0c08240026050020060400202705002007
:020000040000fa
:10083000f40400201c000000000000000804002058
:10084000c000000000000000100500200c000000a7
:10085000000000000504002001000000000000006e
:10086000c80400202c000000000000000604002046
:10087000020000000000000000000020050400004d
:10088000000000002405002001000000000000001e
:1008900025050020010000000000000026050020c2
:1008a00001000000000000002705002001000000fa
:1008b000010000000b0000001c05002004000000e7
:1008c00001000000050400002005002004000000d5
:1008d0000000000000000000000000002222222290
:020000040000fa
:1008e0001f4b00229a619a8c80218a439a841a00b5
:1008f0001023d1680b42fcd01a4b1a68920e3f2a83
:100900002bd0194b1b689b059b0d92021343144a75
:100910009362022393840e33d1680b42fcd0134bb5
:10092000134a5a601a0053785bb2002bfbdb0f4b63
:10093000104a5a601a0053785bb2002bfbdb0b4b5a
:100940000d4a5a800d4a5a800d4a5a800d4b0e4a64
:100950001a62034b00221a627047203ad1e7c04660
:10096000000800402460800028608000000c0040e7
:1009700001030100000701000441000005400000e0
:0c098000144000000004004004000100ce
:020000040000fa
:10098c00f0b5c6461f4a204b00b50021934203d256
:10099c00197001339342fbd10b231c4a9c46083b34
:1009ac0098461368546819000026214311d017008b
:1009bc0091680c3700290fd11a19002c03d01e7026
:1009cc0001339342fbd13a00136854681900214358
:1009dc00edd104bc9046f0bd6146c91a1d195118e1
:1009ec00002c05d05a1c505c187013009542f9d19c
:1009fc00434623405a1e9341a4081c19a4003f19d6
:100a0c003a00e1e700000020000000203008000060
:020000040000fa
:100a1c001d4a137801210b43137053785bb2002be2
:100a2c00fbdb194922238b610022ca611f3bcb607f
:100a3c00164b1a7201321a750f3220201a540c30d0
:100a4c001a540c301a540c301a540c301a540c30f2
:100a5c001a540c301a540c301a540c301a540c30e2
:100a6c001a540c301a540c301a540c301a540c30d2
:100a7c001a540b78022213430b700a0053785bb2a2
:100a8c00002bfbdb7047c046001800400804002018
:020000040000fa
:100a9c0010b50e4b002b00d098470d4b002b00d0ff
:100aac009847fff76dff0b4bff2293430a4a936065
:100abc000a4b98470a4b002b00d09847094b002b48
:100acc0000d09847fff750fefee7c046000000003c
:100adc00000000000000000000ed00e0d90b000059
:080aec00000000000000000002
:020000040000fa
:100af400bff35f8f62b6114bc02080001a581202f8
:100b0400120ac02109060a431a5008221a60c12198
:100b140089005a58ff2082433f3802435a5010221a
:100b24001a60c22080001a5805491140c0221202de
:100b34000a431a50802292001a60704700e100e0d4
:040b4400ff00ffffb0
:020000040000fa
:100b480010b5064c2378002b07d1054b002b02d09b
:100b5800044800e000bf0123237010bdf404002006
:100b68000000000000000000044b10b5002b03d06b
:100b78000349044800e000bf10bdc0460000000063
:080b8800f80400200000000049
:020000040000fa
:100b9000f0b5c64600b50e4d00240e4f0123984611
:100ba00004e03e6101340c35102c0ed02a7ae3b2f9
:100bb0009a42f7d13b694646a6401e42f2d02b68c6
:100bc000002beed068689847ebe704bc9046f0bd78
:080bd000080400200018004099
:020000040000fa
:100bd80070b500260c4d0d4c641ba410a64209d11b
:100be8000026fff761fa0a4d0a4c641ba410a642be
:100bf80005d170bdb300eb5898470136eee7b30056
:100c0800eb5898470136f2e7bc000000bc00000032
:080c1800bc000000c000000058
:020000040000fa
:100c20000e4b01221a801a00937a5bb2002bfbdb79
:100c30000a4b80221a801a00937a5bb2002bfbdbee
:100c4000064b802292019a611a00937a5bb2002bc4
:100c5000fbdb024b0122da717047c04600140040f2
:020000040000fa
:100c60000b4b00221a621a779a60da60094b8822cd
:100c700092025a601a00d369002bfcd1054b0b225b
:100c80001a73054a1a601a00d369002bfcd1704709
:0c0c9000c8040020000800420e003000e4
:020000040000fa
:100c9c000a4b0b4a1a601a61012240215a54013145
:100cac005a5403315a5401315a5401315a540131b6
:100cbc005a54323215395a549a54704700440041f0
:040ccc0000083002ea
:020000040000fa
:100cd00010b50a4b06225a60fff7e0fffff700fe4f
:100ce00000f084f800f081f8fff7bafffff796fef6
:100cf000fff796fffff7fefe10bdc0460040004123
:020000040000fa
:100d000010b5074b74221a705870703a9a7000220e
:100d1000da70181d034a044900f05ef810bdc046a1
:0c0d20000000002001040000d0000000d2
:020000040000fa
:100d2c0030b543001b189b00064ce3181b7a83421a
:100d3c0000d030bd43001d18ad0029516019426030
:080d4c00f7e7c046080400208f
:020000040000fa
:100d540010b5074a107ac0b2064b1871c12111723e
:100d64001b68002b02d0034a9168984710bdc04607
:080d74000014004010050020ee
:020000040000fa
:100d7c0010b5054b1878fff7bdff044b19680448f4
:100d8c0000f040f810bdc046270500201c050020cf
:040d9c000000002033
:020000040000fa
:100da000c30707d5044b01221a70044b1205da6100
:100db000520ada617047c04626050020004400410f
:020000040000fa
:100dc000044a138802210b431380937a5bb2002bf1
:080dd000fbdb7047001400403a
:020000040000fa
:100dd800002310b59a4200d110bdcc5cc454013335
:020de800f8e72a
:020000040000fa
:020dea00704750
:020000040000fa
:0c0dec00014b82225a6070470040004119
:020000040000fa
:0c0df800014b1860996070471005002046
:020000040000fa
:0c0e0400014b186259627047c8040020be
:020000040000fa
:0c0e100010b500230022fff713fc10bdfa
:020000040000fa
:0c0e1c00014b01221a70704724050020d1
:020000040000fa
:0c0e2800014b01221a70704725050020c4
:020000040000fa
:020e3400fee7d7
:020000040000fa
:020e3600fee7d5
:020000040000fa
:020e3800fee7d3
:020000040000fa
:020e3a007047ff
:020000040000fa
:0200000400807a
:0440000077c700d8a6
:020000040000fa
:0200000400807a
:044004005c00ffff5e
:00000001FF
